:020000040000FA
:3D000000FFFF62FF2700FFFFFFFFFFFFFFFFFFFFFFFFFFFFFFFFFFFFFFFFFFFFFFFFFFFFFFFFFFFFFFFFFFFFFFFFFFFFFFFFFFFFFFFFFFFFFFFFFFFFFFFFFFFFFF74
:3D003D00C0F55CCF733DCFF33CD7755DCFF35CCF735DD7733DD7755DD7753D0F00000000705DD7755DCFF35CD7755DD7755DCF755DCFF33CD7733DD7735DD70580BB
:3D007A00A0288AA2288AA2288AA2288AA2288AA2288AA2288AA2288AA2288A0200000000288AA2288AA2288AA2288AA2288AA2288AA2288AA2288AA2288AA280E7FA
:3D00B700000000000000000000000000000000000000000000000000000000000000000000000000000000000000000000000000000000000000000000000080E7A5
:3D00F400000000000000000000000000000000000000000000000000000000000000000000000000000000000000000000000000000000000000000000000080E768
:3D013100000000000000000000000000000000000000000000000000000000000000000000000000000000000000000000000000000000000000000000000080E72A
:3D016E00000000000000000000000000000000000000000000000000000000000000000000000000000000000000000000000000000000000000000000000080E7ED
:3D01AB00000000000000000000000000000000000000000000000000000000000000000000000000000000000000000000000000000000000000000000000080E7B0
:3D01E800000000000000000000000000000000000000000000000000000000000000000000000000000000000000000000000000000000000000000000000080E773
:3D022500000000000000000000000000000000000000000000000000000000000000000000000000000000000000000000000000000000000000000000000080E735
:3D026200000000000000000000000000000000000000000000000000000000000000000000000000000000000000000000000000000000000000000000000080E7F8
:3D029F00000000000000000000000000000000000000000000000000000000000000000000000000000000000000000000000000000000000000000000000080E7BB
:3D02DC000000000000000000000000000000000000000000000000000000000000000000000000000000000000000000000000000000000000000000000000B0D461
:3D031900000000000000000000000000000000000000000000000000000000000000000000000000000000000000000000000000000000000000000000000080E740
:3D035600000000000000000000000000000000000000000000000000000000000000000000000000000000000000000000000000000000000000000000000080E703
:3D039300000000000000000000000000000000000000000000000000000000000000000000000000000000000000000000000000000000000000000000000080E7C6
:3D03D000000000000000000000000000000000000000000000000000000000000000000000000000000000000000000000000000000000000000000000000080E789
:3D040D00000000000000000000000000000000000000000000000000000000000000000000000000000000000000000000000000000000000000000000000008EFBB
:3D044A00000000000000000000000000000000000000000000000000000000000000000000000000000000000000000000000000000000000000000000000080E70E
:3D048700000000000000000000000000000000000000000000000000000000000000000000000000000000000000000000000000000000000000000000000080E7D1
:3D04C400000000000000000000000000000000000000000000000000000000000000000000000000000000000000000000000000000000000000000000000080E794
:3D050100000000000000000000000000000000000000000000000000000000000000000000000000000000000000000000000000000000000000000000000080E756
:3D053E00000000000000000000000000000000000000000000000000000000000000000000000000000000000000000000000000000000000000000000000080E719
:3D057B000000000000000000000000000000000000000000000000000000000000000000000000000000000000000000000000000000000000000000000000C0A3E0
:3D05B800000000000000000000000000000000000000000000000000000000000000000000000000000000000000000000000000000000000000000000000080E79F
:3D05F500000000000000000000000000000000000000000000000000000000000000000000000000000000000000000000000000000000000000000000000080E762
:3D063200000000000000000000000000000000000000000000000000000000000000000000000000000000000000000000000000000000000000000000000080E724
:3D066F000000000000000000000000000000000000000000000000000000000000000000000000000000000000000000000000000000000000000000000000C0A3EB
:3D06AC00000000000000000000000000000000000000000000000000000000000000000000000000000000000000000000000000000000000000000000000080E7AA
:3D06E900000000000000000000000000000000000000000000000000000000000000000000000000000808000000000000000000000000000000002002000080CD55
:3D072600000000000000000000000000000000000000000000000000000000000000000000000000000000000000000000000000000000000000000002000080C74D
:3D076300000000000000000000000000000000000000000000000000000000000000000000000000000000000000000000000000000000000000000000000080E7F2
:3D07A000000000000000000000000000000000000000000000000000000000000000000000000000000808000000000000000000000000000000002000000080ED7F
:3D07DD00000000000000000000000000000000000000000000000000000000000000000000000000000000000000000000000000000000000000000000000080E778
:3D081A00000000000000000000000000000000000000000000000000000000000000000000000000000000000000000000000000000000000000000000000080E73A
:3D085700000000000000000000000000000000000000000000000000000000000000000000000000000000000000000000000000000000000000000000000080E7FD
:3D089400820008800008800008800008800008800008800008800008800008000000000020000220000220000220000220000220000220000220000220000208ED36
:3D08D100800008800008800008800008800008800008800008800008800008000000000020000220000220000220000220000220000220000220000220000208EFF9
:3D090E00000000000000000000000000000000000000000000000000000000000000000000000000000000000000000000000000000000000000000000000090F626
:3D094B00000000000000000000000000000000000000000000000000000000000000000000000000000000000000000000000000000000000000000000000008EF78
:3D098800000000000000000000000000000000000000000000000000000000000000000000000000000000000000000000000000000000000000000000000008EF3B
:3D09C500020000000000000000000000000000000000000000000000000000000000000000000000000000000000000000000000000000000000000000000008EDFE
:3D0A0200000000000000000000000000000000000000000000000000000000000000000000000000000000000000000000000000000000000000000000000080E750
:3D0A3F00000000000000000000000000000000000000000000000000000000000000000000000000000000000000000000000000000000000000000000000080E713
:3D0A7C00000000000000000000000000000000000000000000000000000000000000000000000000000000000000000000000000000000000000000000000080E7D6
:3D0AB900020000000000000000000000000000000000000000000000000000000000000000000000000000000000000000000000000000000000000000000008ED09
:3D0AF600000000000000000000000000000000000000000000000000000000000000000000000000000000000000000000000000000000000000000000000008EFCC
:3D0B3300000000000000000000000000000000000000000000000000000000000000000000000000000000000000000000000000000000000000000000000090F6FF
:3D0B7000000000000000000000000000000000000000000000000000000000000000000000000000000000000000000000000000000000000000000000000008EF51
:3D0BAD00000000000000000000000000000000000000000000000000000000000000000000000000000000000000000000000000000000000000000000000008EF14
:3D0BEA00020000000000000000000000000000000000000000000000000000000000000000000000000000000000000000000000000000000000000000000008EDD7
:3D0C2700000000000000000000000000000000000000000000000000000000000000000000000000000000000000000000000000000000000000000000000080E729
:3D0C6400020000000000000000000000000000000000000000000000000000000000000000000000000000000000000000000000000000000000000000000008ED5C
:3D0CA100000000000000000000000000000000000000000000000000000000000000000000000000000000000000000000000000000000000000000000000008EF1F
:3D0CDE00000000000000000000000000000000000000000000000000000000000000000000000000000000000000000000000000000000000000000000000090F653
:3D0D1B00000000000000000000000000000000000000000000000000000000000000000000000000000000000000000000000000000000000000000000000008EFA4
:3D0D5800000000000000000000000000000000000000000000000000000000000000000000000000000000000000000000000000000000000000000000000008EF67
:3D0D9500020000000000000000000000000000000000000000000000000000000000000000000000000000000000000000000000000000000000000000000008ED2A
:3D0DD200000000000000000000000000000000000000000000000000000000000000000000000000000000000000000000000000000000000000000000000080E77D
:3D0E0F00000000000000000000000000000000000000000000000000000000000000000000000000000000000000000000000000000000000000000000000080E73F
:3D0E4C00000000000000000000000000000000000000000000000000000000000000000000000000000000000000000000000000000000000000000000000080E702
:3D0E8900020000000000000000000000000000000000000000000000000000000000000000000000000000000000000000000000000000000000000000000008ED35
:3D0EC600000000000000000000000000000000000000000000000000000000000000000000000000000000000000000000000000000000000000000000000008EFF8
:3D0F0300000000000000000000000000000000000000000000000000000000000000000000000000000000000000000000000000000000000000000000000090F62B
:3D0F4000000000000000000000000000000000000000000000000000000000000000000000000000000000000000000000000000000000000000000000000008EF7D
:3D0F7D00000000000000000000000000000000000000000000000000000000000000000000000000000000000000000000000000000000000000000000000008EF40
:3D0FBA00020000000000000000000000000000000000000000000000000000000000000000000000000000000000000000000000000000000000000000000008ED03
:3D0FF700000000000000000000000000000000000000000000000000000000000000000000000000000000000000000000000000000000000000000000000080E756
:3D103400020000000000000000000000000000000000000000000000000000000000000000000000000000000000000000000000000000000000000000000008ED88
:3D107100000000000000000000000000000000000000000000000000000000000000000000000000000000000000000000000000000000000000000000000008EF4B
:3D10AE00000000000000000000000000000000000000000000000000000000000000000000000000000000000000000000000000000000000000000000000090F67F
:3D10EB00000000000000000000000000000000000000000000000000000000000000000000000000000000000000000000000000000000000000000000000008EFD1
:3D112800000000000000000000000000000000000000000000000000000000000000000000000000000000000000000000000000000000000000000000000008EF93
:3D116500020000000000000000000000000000000000000000000000000000000000000000000000000000000000000000000000000000000000000000000008ED56
:3D11A200000000000000000000000000000000000000000000000000000000000000000000000000000000000000000000000000000000000000000000000080E7A9
:3D11DF00000000000000000000000000000000000000000000000000000000000000000000000000000000000000000000000000000000000000000000000080E76C
:3D121C00000000000000000000000000000000000000000000000000000000000000000000000000000000000000000000000000000000000000000000000080E72E
:3D125900020000000000000000000000000000000000000000000000000000000000000000000000000000000000000000000000000000000000000000000008ED61
:3D129600000000000000000000000000000000000000000000000000000000000000000000000000000000000000000000000000000000000000000000000008EF24
:3D12D300000000000000000000000000000000000000000000000000000000000000000000000000000000000000000000000000000000000000000000000090F658
:3D131000000000000000000000000000000000000000000000000000000000000000000000000000000000000000000000000000000000000000000000000008EFA9
:3D134D00000000000000000000000000000000000000000000000000000000000000000000000000000000000000000000000000000000000000000000000008EF6C
:3D138A00020000000000000000000000000000000000000000000000000000000000000000000000000000000000000000000000000000000000000000000008ED2F
:3D13C700000000000000000000000000000000000000000000000000000000000000000000000000000000000000000000000000000000000000000000000080E782
:3D140400020000000000000000000000000000000000000000000000000000000000000000000000000000000000000000000000000000000000000000000008EDB4
:3D144100020000000000000000000000000000000000000000000000000000000000000000000000000000000000000000000000000000000000000000000008ED77
:3D147E00040000000000000000000000000000000000000000000000000000000000000000000000000000000000000000000000000000000000000000000090F2AB
:3D14BB00020000000000000000000000000000000000000000000000000000000000000000000000000000000000000000000000000000000000000000000008EDFD
:3D14F800020000000000000000000000000000000000000000000000000000000000000000000000000000000000000000000000000000000000000000000008EDC0
:3D153500020000000000000000000000000000000000000000000000000000000000000000000000000000000000000000000000000000000000000000000008ED82
:3D157200000000000000000000000000000000000000000000000000000000000000000000000000000000000000000000000000000000000000000000000080E7D5
:3D15AF00000000000000000000000000000000000000000000000000000000000000000000000000000000000000000000000000000000000000000000000080E798
:3D15EC00000000000000000000000000000000000000000000000000000000000000000000000000000000000000000000000000000000000000000000000080E75B
:3D162900020000000000000000000000000000000000000000000000000000000000000000000000000000000000000000000000000000000000000000000008ED8D
:3D166600020000000000000000000000000000000000000000000000000000000000000000000000000000000000000000000000000000000000000000000008ED50
:3D16A300040000000000000000000000000000000000000000000000000000000000000000000000000000000000000000000000000000000000000000000090F284
:3D16E000020000000000000000000000000000000000000000000000000000000000000000000000000000000000000000000000000000000000000000000008EDD6
:3D171D00020000000000000000000000000000000000000000000000000000000000000000000000000000000000000000000000000000000000000000000008ED98
:3D175A00020000000000000000000000000000000000000000000000000000000000000000000000000000000000000000000000000000000000000000000008ED5B
:3D179700000000000000000000000000000000000000000000000000000000000000000000000000000000000000000000000000000000000000000000000080E7AE
:3D17D400000000000000000000000000000000000000000000000000000000000000000000000000000000000000000000000000000000000000000000000080E771
:3D181100000000000000000000000000000000000000000000000000000000000000000000000000000000000000000000000000000000000000000000000080E733
:3D184E00000000000000000000000000000000000000000000000000000000000000000000000000000000000000000000000000000000000000000000000080E7F6
:3D188B00000000000000000000000000000000000000000000000000000000000000000000000000000000000000000000000000000000000000000000000080E7B9
:3D18C800800008800008800008800008800008800008800008800008800008000000000020000220000220000220000220000220000220000220000220000280E782
:3D190500800008800008800008800008800008800008800008800008800008000000000020000220000220000220000220000220000220000220000220000280E744
:3D194200000000000000000000000000000000000000000000000000000000000000000000000000000000000000000000000000000000000000000000000080E701
:3D197F00000000000000000000000000000000000000000000000000000000000000000000001000000000000000000000800000000000000000002800000080EC07
:3D19BC00000000000000000000000000000000000000000000000000000000000000000000000002000000000000000000000000000000000000000000000080C7A5
:3D19F900000000000000000000000000000000000000000000000000000000000000000000000000000000000000000000000000000000000000000010000080F62B
:3D1A3600000000000000000000000000000000000000000000000000000000000000000000001002000000000000000000800000000000000000002810000080DD4C
:3D1A7300000000000000000000000000000000000000000000000000000000000000000000000000000000000000000000000000000000000000000000000080E7CF
:3D1AB000000000000000000000000000000000000000000000000000000000000000000000000000000000000000000000000000000000000000000000000028CD04
:3D1AED00000000000000000000000000000000000000000000000000000000000000000000000000000000000000000000000000000000000000000000000080E755
:3D1B2A00040000000000000000000000000000000000000000000000000000000000000000000000000000000000000000000000000000000000000000000080E317
:3D1B6700000000000000000000000000000000000000000000000000000000000000000000000000000000000000000000000000000000000000000000000080E7DA
:3D1BA4000000000000000000000000000000000000000000000000000000000000000000000000000000000000000000000000000000000000000000000000A0C59F
:3D1BE100000000000000000000000000000000000000000000000000000000000000000000000000000000000000000000000000000000000000000000000080E760
:3D1C1E00000000000000000000000000000000000000000000000000000000000000000000000000000000000000000000000000000000000000000000000080E722
:3D1C5B00000000000000000000000000000000000000000000000000000000000000000000000000000000000000000000000000000000000000000000000080E7E5
:3D1C98000000000000000000000000000000000000000000000000000000000000000000000000000000000000000000000000000000000000000000000000D0B28D
:3D1CD500000000000000000000000000000000000000000000000000000000000000000000000000000000000000000000000000000000000000000000000080E76B
:3D1D1200000000000000000000000000000000000000000000000000000000000000000000000000000000000000000000000000000000000000000000000080E72D
:3D1D4F00000000000000000000000000000000000000000000000000000000000000000000000000000000000000000000000000000000000000000000000080E7F0
:3D1D8C00000000000000000000000000000000000000000000000000000000000000000000000000000000000000000000000000000000000000000000000080E7B3
:3D1DC900000000000000000000000000000000000000000000000000000000000000000000000000000000000000000000000000000000000000000000000080E776
:3D1E0600020000000000000000000000000000000000000000000000000000000000000000000000000000000000000000000000000000000000000000000080E538
:3D1E4300000000000000000000000000000000000000000000000000000000000000000000000000000000000000000000000000000000000000000000000080E7FB
:3D1E8000000000000000000000000000000000000000000000000000000000000000000000000000000000000000000000000000000000000000000000000080E7BE
:3D1EBD00000000000000000000000000000000000000000000000000000000000000000000000000000000000000000000000000000000000000000000000080E781
:3D1EFA00000000000000000000000000000000000000000000000000000000000000000000000000000000000000000000000000000000000000000000000080E744
:3D1F3700000000000000000000000000000000000000000000000000000000000000000000000000000000000000000000000000000000000000000000000008EF76
:3D1F7400000000000000000000000000000000000000000000000000000000000000000000000000000000000000000000000000000000000000000000000080E7C9
:3D1FB100000000000000000000000000000000000000000000000000000000000000000000000000000000000000000000000000000000000000000000000080E78C
:3D1FEE00000000000000000000000000000000000000000000000000000000000000000000010200000000000000000000000000000002000000000000000080E44D
:3D202B00000000000000000000000000000000000000000000000000000000000000000010040000000000000040002000000000000000000000000000000080B4D0
:3D206800000000000000000000000000000000000000000000000000000000000000000010000100000000001010000100000000000000000100000000000080F791
:3D20A500000000000000000000000000000000000000000000000000000000000000000000000000000000000000000000000000000000000000000000000080E797
:3D20E200000000000000000000000000000000000000000000000000000000000000000000000000000000000000000000000000000000000000000000000080E75A
:3D211F00000000000000000000000000000000000000000000000000000000000000000000080000000000000000004000000000002000000000000000000080E9B2
:3D215C00000000000000000000000000000000000000000000000000000000000000000000000000000000000000000800000000000000000000000000000000E757
:3D219900000000000000000000000000000000000000000000000000000000000000000080011900000000000980001100000000000900000000000000000000E6E6
:3D21D6000000000000000000000000000000000000000000000000000000000000000000000000000000000000004402000000000000000040000000000000808541
:3D221300000000000000000000000000000000000000000000000000000000000000000000000000000000000000000000000000000004000000000000000080A763
:3D2250000000000000000000000000000000000000000000000000000000000000000000200000000000000000000000040000000000000000000000000000808528
:3D228D00000000000000000000000000000000000000000000000000000000000000000000000000000000000000000000000000000000000000000000000080E7AD
:3D22CA00000000000000000000000000000000000000000000000000000000000000000000000000000000000000020000000000000000000000000000000080E570
:3D230700000000000000000000000000000000000000000000000000000000000000000000000000000000000000000000000000000400000000000000000080A372
:3D234400000000000000000000000000000000000000000000000000000000000000000000000000000000000040008000000000000800002000000000000000A9CB
:3D238100000000000000000000000000000000000000000000000000000000000000000000000000000000008000088000000000008000000000000000000080E730
:3D23BE00000000000000000000000000000000000000000000000000000000000000000080000800000000000000000000000000000000000000000000000080E7F3
:3D23FB00000000000000000000000000000000000000000000000000000000000000000000000000000000000000000000000000000000000000000000000080E73E
:3D243800000000000000000000000000000000000000000000000000000000000000000000000000000000002000001000000000000000000000000000000080E4D3
:3D247500000000000000000000000000000000000000000000000000000000000000000000000000000000000000000000000000000000000000000000000080E7C3
:3D24B200000000000000000000000000000000000000000000000000000000000000000000000000000000000020000000000000000000000000000000000080C588
:3D24EF00000000000400100040400000000004100400000040401000010000000000000008000000020880000080001400060002802000800002000008A22080CC0D
:3D252C0000000000040000004040000000000400040000004040000000000000000000000800000000088000002000000000000000000080000000000880008085A9
:3D256900000000000000000000000000000000000000000000000000000000000000000000000000000000000000000000040000000000000000000000000080E3CE
:3D25A6000000000000001000000000000000001000000000000010000100000000000000000000000200000000800014000200020020000000020000002220008049
:3D25E300000000000000000000000000000000000000000000000000000000000000000000000000000000000000000000000000800000000000000000000000EF4C
:3D262000000000000000000000000000000000000000000000000000000000000000000000000000000000000000000000000000000000000000000000000080E716
:3D265D00000000000000000000000000000000000000000000000000000000000000000000000000000000000000000000000000000000000000000000000080E7D9
:3D269A00800008800008800008800008800008800008800008800008800008000000000020000220000220000220000220000220000220000220000220000280E7A2
:3D26D700820008800008800008800008800008800008800008800008800008000000000020000220000220000220000220000220000220000220000220000208EDD5
:3D271400020000000000000000000000000000000000000000000000000000000000000000000000000000000000000000000000000000000000000000000008ED91
:3D275100020000000000000000000000000000000000000000000000000000000000000000000000000000000000000000000000804900000000000000000008F088
:3D278E00020000000000000000000000000000000000000000000000000000000000000000000000000000000000000000000000000C00000000000000000088A9CF
:3D27CB00000000000000000000000000000000000000000000000000000000000000000000000000000000000000000000000000000500000000000000000080B29A
:3D280800000000000000000000000000000000000000000000000000000000000000000000000000000000000000000000000000000001000000000000000080F71B
:3D284500000000000000000000000000000000000000000000000000000000000000000000000000000000000000000000000000000600000000000000000080814F
:3D288200000000000000000000000000000000000000000000000000000000000000000000000000000000000000000000000000000404000000000000000080E3AE
:3D28BF00000000000000000000000000000000000000000000000000000000000000000000000000000000000000000000000000000E00000000000000000000814D
:3D28FC00020000000000000000000000000000000000000000000000000000000000000000010000000000000000000000000000000000000000000000000008ECA8
:3D293900020000000000000000000000000000000000000000000000000000000000000078800104000000000018C00104000000800904000000000000000008925E
:3D2976000200000000000000000000000000000000000000000000000000000000000000600004000000000000401004000000000004000000000000000000089BC3
:3D29B300020000000000000000000000000000000000000000000000000000000000000070018D00000000000050008D00000000000502000000000000000008BB40
:3D29F0000000000000000000000000000000000000000000000000000000000000000000600100000000000000800000000000000000010000000000000000009038
:3D2A2D000000000000000000000000000000000000000000000000000000000000000000E0004E00000000000060008600000000000E000000000000000000008DBD
:3D2A6A0000000000000000000000000000000000000000000000000000000000000000006000040000000000004008440000000000840000000000000000008085B6
:3D2AA700020000000000000000000000000000000000000000000000000000000000000060000E040000000000E0000600000000000600000000000000000008CBBF
:3D2AE400020000000000000000000000000000000000000000000000000000000000000000001000000000000000010000000000000000000000000000000008EDAD
:3D2B2100020000000000000000000000000000000000000000000000000000000000000018C00F000000000000F880270000000080810080010400000000000881E0
:3D2B5E00020000000000000000000000000000000000000000000000000000000000000040000600000000000060000600000000000402000401000000000008FF7A
:3D2B9B000000000000000000000000000000000000000000000000000000000000000000D0081700000000000070011F00000000000D00000500000000000000CCA0
:3D2BD80000000000000000000000000000000000000000000000000000000000000000000010060000000000006001060000000000400000000000000000008094EF
:3D2C15000000000000000000000000000000000000000000000000000000000000000000E0002600000000000060002E00000000000E00000E04000000000080A7A7
:3D2C5200000000000000000000000000000000000000000000000000000000000000000040400600000000000060000600000000000400000404000000000080C508
:3D2C8F00000000000000000000000000000000000000000000000000000000000000000060000600000000000060000600000000000601000600000000000080F7B8
:3D2CCC00020000000000000000000000000000000000000000000000000000000000000080000001000000000000021000000000001000000800000000000008FF17
:3D2D0900020000000000000000000000000000000000000000000000000000000000000098800100000000000078800F00000000800F008009000000000000088BC0
:3D2D4600020000000000000000000000000000000000000000000000000000000000000040000C00000000000060000600000000000600000400000000000088CF3B
:3D2D83000200000000000000000000000000000000000000000000000000000000000000D02005000000000000F0011700000000001700000D02000000000088CE98
:3D2DC000000000000000000000000000000000000000000000000000000000000000000080000000000000000060001600000000001600000002000000000000A127
:3D2DFD000000000000000000000000000000000000000000000000000000000000000000600006010000000000E0020600000000000600000E00000000000080F5C1
:3D2E3A00000000000000000000000000000000000000000000000000000000000000000040204400000000000060000600000000000600000400000000000080E1E6
:3D2E7700020000000000000000000000000000000000000000000000000000000000000060000600000000000060000600000000000600000602000000000008CD6D
:3D2EB400020000000000000000000000000000000000000000000000000000000000000000002000000000000000000000000000000000000000000000000008EFC8
:3D2EF100020000000000000000000000000000000000000000000000000000000000000018880700000000804998844900000000804900800104000000000088DA1D
:3D2F2E00020000000000000000000000000000000000000000000000000000000000000040200600000000000C40400C00000000000C00000401000000000088FBD2
:3D2F6B000000000000000000000000000000000000000000000000000000000000000000D0001F0000000000055000050000000000050000050000000000008091C5
:3D2FA800000000000000000000000000000000000000000000000000000000000000000000100600000000000002400000000000000000000004000000000080B15F
:3D2FE500000000000000000000000000000000000000000000000000000000000000000060002E000000000006E0004600000000000E01000E0000000000008097C1
:3D3022000000000000000000000000000000000000000000000000000000000000000000400006000000000004400084000000000004000004000000000000808952
:3D305F000000000000000000000000000000000000000000000000000000000000000000E0100600000000008EE0400600000000000604008E0000000000008091E1
:3D309C00020000000000000000000000000000000000000000000000000000000000000000000000000000000000000000000000000000000001000000000008FDEF
:3D30D900020000000000000000000000000000000000000000000000000000000000000098C0090100000080099C900904000000800904800F0000000000000892DE
:3D3116000200000000000000000000000000000000000000000000000000000000000000400884000000000004400004000000000004000016000000000000088ABA
:3D315300020000000000000000000000000000000000000000000000000000000000000050000500000000000552200502000000000502000F000000000000889A32
:3D31900000000000000000000000000000000000000000000000000000000000000000000000800000000000400010000000000000400000160000000000008098C4
:3D31CD00000000000000000000000000000000000000000000000000000000000000000060100E00000000000EE000060100000000060000060000000000000081C5
:3D320A00000000000000000000000000000000000000000000000000000000000000000040040400000000000444040402000000000400000600000000000080E182
:3D3247000200000000000000000000000000000000000000000000000000000000000000E0000602000000000660000600000000008E00000600000000000008A3B5
:3D328400020000000000000000000000000000000000000000000000000000000000000000000000000000000000004000000000000000000800000000000088E952
:3D32C100020000000000000000000000000000000000000000000000000000000000000098848100000000808118880900000000808100800900000000000008F005
:3D32FE00020000000000000000000000000000000000000000000000000000000000000040080402000000000440200402000000000402000400000000000008A126
:3D333B000000000000000000000000000000000000000000000000000000000000000000D0000D00000000000DD1000D00000000000D00000D0200000000000082EF
:3D337800000000000000000000000000000000000000000000000000000000000000000000044000000000000001040004000000000800004000000000000000B7CC
:3D33B500000000000000000000000000000000000000000000000000000000000000000060000E00000000000EE0000600000000000E00000E0000000000000081DC
:3D33F200000000000000000000000000000000000000000000000000000000000000000040000404000000008440008400000000000400008400000000000080EB1B
:3D342F00000000000000000000000000000000000000000000000000000000000000000060200E00000000000EE0080E00000000004600000600000000000080AD55
:3D346C00020000000000000000000000000000000000000000000000000000000000000000000800000000001080000800000000002000000002000000000088CE09
:3D34A9000200000000000000000000000000000000000000000000000000000000000000F8820900000000800F98800900000000800700800700000000000008F6A5
:3D34E600020000000000000000000000000000000000000000000000000000000000000060000400000000000640000400000000000600000600000000000008A93C
:3D352300020000000000000000000000000000000000000000000000000000000000000070020D020000000017D0200D02000000002F000027000000000000089BD9
:3D356000000000000000000000000000000000000000000000000000000000000000000060020000000000001600000000000000002600002600000000000080E406
:3D359D001E0000000000000000000000000000000000000000000000000000000000000060004600000000000660100E01000000000E00000600000000000078E438
:3D35DA001E0000000000000000000000000000000000000000000000000000000000000060000402000000000640000401000000000600000600000000000078F26F
:3D361700000000000000000000000000000000000000000000000000000000000000000060000600000000000660040600000000000600000600000000000080858F
:3D365400000000000000000000000000000000000000000000000000000000000000000000000000000000000000000000000000000000000000000000000080E7D2
:3D369100000000000000000000000000000000000000000000000000000000000000000000000000000000000000000000000000000000000000000000000080E795
:3D36CE00800008800008800008800008800008800008800008800008800008000000000020000220000220000220000220000220000220000220000220000280E75E
:3D370B00800008800008800008800008800008800008800008800008800008000000000020000220000220000220000220000220000220000220000220000280E720
:3D374800000000000000000000000000000000000000000000000000000000000000000000000400000000000000000000000028000000000000000000000000898F
:3D378500000000000000000000000000000000000000000000000000000000000000000000000000000008000080004000000000000800000000000000000884AB00
:3D37C200000000000400000400000000000400000000000000000000000040000000000000000409000800000000000000000000800080800080800000000000B336
:3D37FF0000100000000001000000000110000101000101100000100000000000000000000000000000000200220000200000000000200000A200200000000080EFB2
:3D383C0000100000040001040000000110040101000101100000100000004000000000000000000800080A002080006000000008802880802080A00000000884A384
:3D387900000000000000000000000000000000000000000000000000000000000000000000100401000000000000100001000000000000000001000000000080B3B8
:3D38B600000000000000000000000000000000000000000000000000000000000000000000000000000000000000000000000000000000000001000000000080F75D
:3D38F300000000000000000000000000000000000000000000000000000000000000000000000200000000000000000000000000000000001000000000000080C442
:3D393000000000000000000000000000000000000000000000000000000000000000000000040000000000000000000000000000000000000006000000000080834D
:3D396D00000000000000000000000000000000000000000000000000000000000000000000020000000000000010000800000000004000008002000000000000D869
:3D39AA000000000000000000000000000000000000000000000000000000000000000000000A00000000000000000104000000000000000002000000000000808AC5
:3D39E700000000000000000000000000000000000000000000000000000000000000000000008000000000000000010000000000000000000000000000000080EEB4
:3D3A2400000000000000000000000000000000000000000000000000000000000000000000000000000000000004004000000000002000008000000000000080A958
:3D3A6100000000000000000000000000000000000000000000000000000000000000000020002002000000000220020200000000000200000000000000000080E559
:3D3A9E00000000000000000000000000000000000000000000000000000000000000000000005000000000000000000000000000000000000000000000000080E239
:3D3ADB00000000000000000000000000000000000000000000000000000000000000000000000000000000001000000400000000000000000000000000000080A278
:3D3B1800000000000000000000000000000000000000000000000000000000000000000000000400000000000000000000000000000000000000000000000080A349
:3D3B5500000000000000000000000000000000000000000000000000000000000000000000400004000000002000400004000000000000000004000000000080A562
:3D3B9200000000000000000000000000000000000000000000000000000000000000000000100001000000000200100001000000000001000800000000000000D5F4
:3D3BCF00000000000000000000000000000000000000000000000000000000000000000000004000000000000000000000000000000000000000000000000080E316
:3D3C0C00000000000000000000000000000000000000000000000000000000000000000000400000000000008000200000000000000600000000000000000080E92C
:3D3C4900000000000000000000000000000000000000000000000000000000000000000000000000000000000000200000000000000000000000000000000080C7D7
:3D3C8600000000000000000000000000000000000000000000000000000000000000000000000000000000000000000000000000004000000000000000000080E35E
:3D3CC300000000000000000000000000000000000000000000000000000000000000000000200000000000000002040002000000001002000000000000000080E228
:3D3D0000000000000000000000000000000000000000000000000000000000000000000000008002000000000000000000000000000000000000000000000080CFB5
:3D3D3D00000000000000000000000000000000000000000000000000000000000000000000000000000000000000000000000000000000000000000000000080E7E2
:3D3D7A00000000000000000000000000000000000000000000000000000000000000000040000000000000000000000000000000000100000000000000000080B299
:3D3DB700000000000000000000000000000000000000000000000000000000000000000000000000000000000000000000000000000000000000000000000080E768
:3D3DF400000000000000000000000000000000000000000000000000000000000000000000000000100400000000000000401000000000000000000000000080F2BC
:3D3E3100000000000000000000000000000000000000000000000000000000000000000000000000000020000000000000000000000000000000000000000080C5EF
:3D3E6E00000000000000000000000000000000000000000000000000000000000000000020400210004024420000000010000600000000000000000000000080E584
:3D3EAB00000000000000000000000000000000000000000000000000000000000000000000000000000000000000000080000000000000000000000000000000E773
:3D3EE800000000000000000000000000000000000000000000000000000000000000000000000000000200000000000000008000000000000000000000000080CDCE
:3D3F2500000000000000000000000000000000000000000000000000000000000000000000000000000000000000000000000000000000000000000000000080E7F8
:3D3F6200000000000000000000000000000000000000000000000000000000000000000000000000410000000000000000000000000000000000000000000080A6BB
:3D3F9F000000000000000000000000000000000000000000000000000000000000000000A0041090010880010000000010000800000000000000000000000000C03F
:3D3FDC00000000000000000000000000000000000000000000000000000000000000000000040000000000000000000020044000000000000000000000000080C1FF
:3D401900000000000000000000000000000000000000000000000000000000000000000000000000000000000000000000040000000000000000000000000080E303
:3D405600000000000000000000000000000000000000000000000000000000000000000000000000000080040000000000000000000000000000000000000000E3C6
:3D409300000000000000000000000000000000000000000000000000000000000000000000000000000004000000000000000000000000000000000000000080A7C5
:3D40D000000000000000000000000000000000000000000000000000000000000000000000000000000000000000000000000000000000000000000000000080E74C
:3D410D000000000000000000000000000000000000000000000000000000000000000000000000200004000000000000000100000000000000000000000000808050
:3D414A00000000000000000000000000000000000000000000000000000000000000000000200000000002200000000000000002000000000000000000000080E78D
:3D418700000000000000000000000000000000000000000000000000000000000000000000410000000000000000000000084000000000000000000000000080AA48
:3D41C400000000000000000000000000000000000000000000000000000000000000000000000080000000000000000000000000000000000000000000000000E757
:3D420100000000000000000000000000000000000000000000000000000000000000000000000000000000000000000000000000000000000000000000000080E719
:3D423E00000000000000000000000000000000000000000000000000000000000000000000080000000000000000000080002000000000000000000000000000EDAE
:3D427B00000000000000000000000000000000000000000000000000000000000000000000000000000000000000000000000000000000000000000000000080E79F
:3D42B800000000000000000000000000000000000000000000000000000000000000000000000000000010000000000000000000000000000000000000000080F643
:3D42F50000000410100000040101100400040000100401000001000400100010000000000000800000000200008802380806000A022082000000A00002200000F955
:3D433200000004000000000400000004000400000004000000000004000000000000000000000000000000000008000008000008000080000000800000000000E737
:3D436F00000000000000000000000000000000000000000000000000000000000000000000000000000000000000000000060000000000000000000000000080E1AA
:3D43AC00000000101000000001011000000000001000010000010000001000100000000000000000000002000080023800000002022002000000200002200080F7D5
:3D43E900000000000000000000000000000000000000000000000000000000000000000000000000000000000000000000000000000000000000000000000080E730
:3D442600000000000000000000000000000000000000000000000000000000000000000000000000000000000000000000000000000000000000000000000080E7F2
:3D446300000000000000000000000000000000000000000000000000000000000000000000000000000000000000000000000000000000000000000000000080E7B5
:3D44A000800008800008800008800008800008800008800008800008800008000000000020000220000220000220000220000220000220000220000220000280E77E
:3D44DD00820008800008800008800008800008800008800008800008800008000000000020000220000220000220000220000220000220000220000220000208EDB1
:3D451A00020000000000000000000000000000000000000000000000000000000000000000000000000000000000000000000000000000000000000000000008ED6D
:3D455700020000000000000000000000000000000000000000000000000000000000000000000000808100000000000000000000000000000000000000000088FCA0
:3D4594000200000000000000000000000000000000000000000000000000000000000000000000000004020000000000000000000000000000000000000000088951
:3D45D100000000000000000000000000000000000000000000000000000000000000000000000000000D00000000000000000000000000000000000000000000B2EE
:3D460E00000000000000000000000000000000000000000000000000000000000000000000000000000000000000000000000000000000000000000000000080E708
:3D464B00000000000000000000000000000000000000000000000000000000000000000000000000004E00000000000000000000000000000000000000000000855F
:3D468800000000000000000000000000000000000000000000000000000000000000000000000000000400000000000000000000000000000000000000000080A3CE
:3D46C500000000000000000000000000000000000000000000000000000000000000000000000000000602000000000000000000000000000000000000000080A18F
:3D470200020000000000000000000000000000000000000000000000000000000000000000040002000000010000000000000000000000000000000000000008C8A1
:3D473F00020000000000000000000000000000000000000000000000000000000000000018800718C00979000000000018C00904000000000000000000000088A431
:3D477C00020000000000000000000000000000000000000000000000000000000000000040101640000464000000000040108400000000000000000000000008E034
:3D47B900020000000000000000000000000000000000000000000000000000000000000050000FD0080D70020000000050000D00000000000000000000000008B2F4
:3D47F6000000000000000000000000000000000000000000000000000000000000000000800006001080600200000000004000020000000000000000000000009D2F
:3D483300000000000000000000000000000000000000000000000000000000000000000060001E600006600000000000E0000600000000000000000000000080801E
:3D4870000000000000000000000000000000000000000000000000000000000000000000C0000640000460000000000040100400000000000000000000000000B39A
:3D48AD000200000000000000000000000000000000000000000000000000000000000000E00006600406610000000000E00006010000000000000000000000088F9D
:3D48EA00020000000000000000000000000000000000000000000000000000000000000000010000000000000000000000000000000000000000000000000008EC9A
:3D4927000200000000000000000000000000000000000000000000000000000000000000F8000078818198400000000078814900000000000000000000000088C776
:3D496400020000000000000000000000000000000000000000000000000000000000000060010060010442400000000060010404000000000000000000000008EE6D
:3D49A100000000000000000000000000000000000000000000000000000000000000000070000070000D50000000000070000D00000000000000000000000080C5DA
:3D49DE000000000000000000000000000000000000000000000000000000000000000000600000600080001000000000600040000000000000000000000000809D8F
:3D4A1B00000000000000000000000000000000000000000000000000000000000000000060020060020E60000000000060020600000000000000000000000000E5DF
:3D4A5800000000000000000000000000000000000000000000000000000000000000000060000060000441080000000060000400000000000000000000000080DD53
:3D4A9500000000000000000000000000000000000000000000000000000000000000000060000060000660000000000060000602000000000000000000000080C70F
:3D4AD200020000000000000000000000000000000000000000000000000000000000000000000000000000000000000000000000000000000000000000000008EDB0
:3D4B0F00020000000000000000000000000000000000000000000000000000000000000098400098C00999100000000098C08100000000000000000000000088A57F
:3D4B4C000200000000000000000000000000000000000000000000000000000000000000404000C00004444000000000C0000400000000000000000000000008ADE9
:3D4B8900020000000000000000000000000000000000000000000000000000000000000050000050000DD0000000000050000D01000000000000000000000088FD8D
:3D4BC600000000000000000000000000000000000000000000000000000000000000000000000000000000080000000000000800000000000000000000000000EFB3
:3D4C03000000000000000000000000000000000000000000000000000000000000000000E0080060200EE2000000000060100600000000000000000000000000FFA7
:3D4C4000000000000000000000000000000000000000000000000000000000000000000040000040200440100000000040000400000000000000000000000080D7A8
:3D4C7D000200000000000000000000000000000000000000000000000000000000000000604000E00046E0000000000060088E00000000000000000000000088A92B
:3D4CBA00020000000000000000000000000000000000000000000000000000000000000000080000040000000000000000004000000000000000000000000008E582
:3D4CF70002000000000000000000000000000000000000000000000000000000000000009800001880091C080000000098900900000000000000000000000008B533
:3D4D3400020000000000000000000000000000000000000000000000000000000000000040400040080444200000000040000400000000000000000000000008C5FF
:3D4D71000000000000000000000000000000000000000000000000000000000000000000D00000500005D0000000000050200D02000000000000000000000000E7AA
:3D4DAE00000000000000000000000000000000000000000000000000000000000000000000100000400082000000000000400001000000000000000000000000C7EE
:3D4DEB000000000000000000000000000000000000000000000000000000000000000000E00000E00006E0000000000060000E00000000000000000000000080E710
:3D4E2800000000000000000000000000000000000000000000000000000000000000000040200040404440000000000040080404000000000000000000000080CB4E
:3D4E6500000000000000000000000000000000000000000000000000000000000000000060000060000660040000000060000600000000000000000000000080E31D
:3D4EA200020000000000000000000000000000000000000000000000000000000000000000020000002000040000000000040000000000000000000000000008EDB2
:3D4EDF00020000000000000000000000000000000000000000000000000000000000000078000018880F98000000000098802700000000000000000000000088818D
:3D4F1C00020000000000000000000000000000000000000000000000000000000000000060000040000640000000000040202600000000000000000000000008EDF5
:3D4F59000200000000000000000000000000000000000000000000000000000000000000F00100D0102FD02000000000D0000700000000000000000000000088FCCE
:3D4F96000000000000000000000000000000000000000000000000000000000000000000600000000806000000000000000006000000000000000000000000808961
:3D4FD3000000000000000000000000000000000000000000000000000000000000000000E00200E0001EE0040000000060042E00000000000000000000000000E665
:3D501000000000000000000000000000000000000000000000000000000000000000000060000040000640000000000040040600000000000000000000000080C1F2
:3D504D00020000000000000000000000000000000000000000000000000000000000000060000060100660100000000060000600000000000000000000000008ED83
:3D508A00020000000000000000000000000000000000000000000000000000000000000000004080002000000000000080000000000000000000000000000008EB94
:3D50C7000200000000000000000000000000000000000000000000000000000000000000188809988007F8020000000098800104000000000000000000000088BE85
:3D510400020000000000000000000000000000000000000000000000000000000000000040200440000660000000000040000401000000000000000000000008997C
:3D5141000000000000000000000000000000000000000000000000000000000000000000D0000DD22027700100000000D020050000000000000000000000008091C4
:3D517E00000000000000000000000000000000000000000000000000000000000000000000004000001660000000000000000002000000000000000000000080C2FA
:3D51BB000000000000000000000000000000000000000000000000000000000000000000600406E00406E00100000000E0080E000000000000000000000000808884
:3D51F800000000000000000000000000000000000000000000000000000000000000000040008440040660000000000040200C000000000000000000000000008F11
:3D5235000000000000000000000000000000000000000000000000000000000000000000E0100EE0000660000000000060000E000000000000000000000000809179
:3D527200020000000000000000000000000000000000000000000000000000000000000000040000020000000000000000020000000000000000000000000008E904
:3D52AF0002000000000000000000000000000000000000000000000000000000000000009880017C80091C400000000078801700000000000000000000000088D3DC
:3D52EC00020000000000000000000000000000000000000000000000000000000000000040000460010444000000000060011600000000000000000000000008CA4D
:3D5329000200000000000000000000000000000000000000000000000000000000000000D0208DF00005D00800000000F0000700000000000000000000000088BAC2
:3D53660000000000000000000000000000000000000000000000000000000000000000000000006000400000000000006000160000000000000000000000008084F0
:3D53A3001E00000000000000000000000000000000000000000000000000000000000000E00446E0020E602000000000E0020E000000000000000000000000F8C06D
:3D53E0001E0000000000000000000000000000000000000000000000000000000000000040000460000440200000000060000600000000000000000000000078C0CC
:3D541D00000000000000000000000000000000000000000000000000000000000000000060100E64000664000000000060000600000000000000000000000000910F
:3D545A00000000000000000000000000000000000000000000000000000000000000000000000000000000000000000000000000000000000000000000000080E7AE
:3D549700000000000000000000000000000000000000000000000000000000000000000000000000000000000000000000000000000000000000000000000080E771
:3D54D400800008800008800008800008800008800008800008800008800008000000000020000220000220000220000220000220000220000220000220000280E73A
:3D551100800008800008800008800008800008800008800008800008800008000000000020000220000220000220000220000220000220000220000220000280E7FC
:3D554E000000000000000000000000000000000000000000000000000000000000000000000000C1000400008000000000000400000000000000000000000000BB1C
:3D558B00000000000000000000000000000000000000000000000000000000000000000000000000000408000000004000000400000806000000000000000802ABD0
:3D55C800000040000000000000000400000000000400000400000400000000000000000000800001000000000000000008000000000000000000000080800080BB92
:3D560500000000000000000000010000000000000000000000100000010001010000000000202000028000008000000000200200020000000000000002202080C468
:3D564200000040000000000000010400000000000400000400100400010001010000000000A02080020408000000004008200400020806000000000082A02882E64B
:3D567F00000000000000000000000000000000000000000000000000000000000000000000100001100000100000000040100001000000000000000000000080A349
:3D56BC00000000000000000000000000000000000000000000000000000000000000000000000000000800000000000000000000000000000000000000000000E7C2
:3D56F900000000000000000000000000000000000000000000000000000000000000000000000000000000080000000000000000000000000000000000000080EFFD
:3D573600000000000000000000000000000000000000000000000000000000000000000010000020000000000000000000200000000000000000000000000080F472
:3D57730000000000000000000000000000000000000000000000000000000000000000001000040200000004000000000000100000000000000000000000008097B8
:3D57B0000000000000000000000000000000000000000000000000000000000000000000000010000400000000000000000A0005000000000000000000000080B861
:3D57ED000000000000000000000000000000000000000000000000000000000000000000002000402480022000000000002002020000000000000000000000808D28
:3D582A00000000000000000000000000000000000000000000000000000000000000000000010400000000000000000000000000000000000000000000000080A21A
:3D586700000000000000000000000000000000000000000000000000000000000000000000000000002000020000000000020000000000000000000000000080E57B
:3D58A400000000000000000000000000000000000000000000000000000000000000000000020000000000080000000000000000000000000000000000000080ED50
:3D58E100000000000000000000000000000000000000000000000000000000000000000000000000004000000000000000000000000000000000000000000080E3E7
:3D591E00000000000000000000000000000000000000000000000000000000000000000000000000008000000000000000000000000000000000000000000080EF5D
:3D595B00000000000000000000000000000000000000000000000000000000000000000000000004420040400000000000402004000000000000000000000080E382
:3D599800000000000000000000000000000000000000000000000000000000000000000040100000201001100000000000100000000000000000000000000080822F
:3D59D500000000000000000000000000000000000000000000000000000000000000000040000000080000000000000000000100000000000000000000000080BA12
:3D5A1200000000000000000000000000000000000000000000000000000000000000000000000000000000000000000000000000000000000000000000000080E7F0
:3D5A4F00000000000000000000000000000000000000000000000000000000000000000000000000000000000000000000008000000000000000000000000080EF2B
:3D5A8C00000000000000000000000000000000000000000000000000000000000000000000000040000000010000000000000000000000000000000000000080A27A
:3D5AC900000000000000000000000000000000000000000000000000000000000000000000020000000000000000000000000000000000000000000000000080E539
:3D5B0600000000000000000000000000000000000000000000000000000000000000000000008000000000000000000040000100000000000000000000000080BA67
:3D5B4300000000000000000000000000000000000000000000000000000000000000000000000000000201000000000000000000000000000000000000000080D5CD
:3D5B8000000000000000000000000000000000000000000000000000000000000000000000000000000000000000000000000000000000000000000000000080E781
:3D5BBD000000000000000000000000000000000000000000000000000000000000000000000000000000000000000000000000000000000000000000000000D0B229
:3D5BFA000000000000000000000000000000000000000000000000000000000000000000000000000000000000000000000000000000000000000000000000A0C509
:3D5C3700000000000000000000000000000000000000000000000000000000000000000000000000000000000000000000000000000000000000000000000080E7C9
:3D5C7400000000000000000000000000000000000000000000000000000000000000000000000000000000000000000000000000000000000000000000000080E78C
:3D5CB100000000000000000000000000000000000000000000000000000000000000000000000000000000000000000000000000000000000000000000000080E74F
:3D5CEE00000000000000000000000000000000000000000000000000000000000000000000000000000000000000000000000000000000000000000000000080E712
:3D5D2B00000000000000000000000000000000000000000000000000000000000000000000000000000000000000000000000000000000000000000000000080E7D4
:3D5D6800000000000000000000000000000000000000000000000000000000000000000000000000000000000000000000000000000000000000000000000080E797
:3D5DA500000000000000000000000000000000000000000000000000000000000000000000000000000000000000000000000000000000000000000000000080E75A
:3D5DE200000000000000000000000000000000000000000000000000000000000000000000000000000000000000000000000000000000000000000000000080E71D
:3D5E1F00000000000000000000000000000000000000000000000000000000000000000000000000000000000000000000000000000000000000000000000080E7DF
:3D5E5C00000000000000000000000000000000000000000000000000000000000000000000000000000000000000000000000000000000000000000000000080E7A2
:3D5E9900000000000000000000000000000000000000000000000000000000000000000000000000000000000000000000000000000000000000000000000080E765
:3D5ED600000000000000000000000000000000000000000000000000000000000000000000000000000000000000000000000000000000000000000000000008EF98
:3D5F1300000000000000000000000000000000000000000000000000000000000000000000000000000000000000000000000000000000000000000000000080E7EA
:3D5F5000000000000000000000000000000000000000000000000000000000000000000000000000000000000000000000000000000000000000000000000080E7AD
:3D5F8D00000000000000000000000000000000000000000000000000000000000000000000000000000000000000000000000000000000000000000000000080E770
:3D5FCA00000000000000000000000000000000000000000000000000000000000000000000000000000000000000000000000000000000000000000000000080E733
:3D600700000000000000000000000000000000000000000000000000000000000000000000000000000000000000000000000000000000000000000000000080E7F5
:3D604400000000000000000000000000000000000000000000000000000000000000000000000000000000000000000000000000000000000000000000000080E7B8
:3D6081000000000000000000000000000000000000000000000000000000000000000000000000000000000000000000000000000000000000000000000000A0C57D
:3D60BE00000000000000000000000000000000000000000000000000000000000000000000000000000000000000000000000000000000000000000000000080E73E
:3D60FB00000000000000000000000000000000000000000000000000000000000000000000002000000000000008000800000000000000000000000000000082CDE9
:3D613800000000000000000000000000000000000000000000000000000000000000000000000000000000000000000800000000000000000000000000000000E73B
:3D617500000000000000000000000000000000000000000000000000000000000000000000002000000000000000000000000000000000000000000000000080E568
:3D61B200000000000000000000000000000000000000000000000000000000000000000000000000000000000008000000000000000000000000000000000002CFD7
:3D61EF00000000000000000000000000000000000000000000000000000000000000000000000000000000000000000000000000000000000000000000000080E70C
:3D622C00000000000000000000000000000000000000000000000000000000000000000000000000000000000000000000000000000000000000000000000080E7CE
:3D626900000000000000000000000000000000000000000000000000000000000000000000000000000000000000000000000000000000000000000000000080E791
:3D62A600820008800008800008800008800008800008800008800008800008000000000020000220000220000220000220000220000220000220000220000208EDCA
:3D62E300800008800008800008800008800008800008800008800008800008000000000020000220000220000220000220000220000220000220000220000208EF8D
:3D632000000000000000000000000000000000000000000000000000000000000000000000000000000000000000000000000000000000000000000000000090F6BA
:3D635D00000000000000000000000000000000000000000000000000000000000000000000000000000000000000000000000000000000000000000000000008EF0C
:3D639A00000000000000000000000000000000000000000000000000000000000000000000000000000000000000000000000000000000000000000000000008EFCF
:3D63D700020000000000000000000000000000000000000000000000000000000000000000000000000000000000000000000000000000000000000000000008ED92
:3D641400000000000000000000000000000000000000000000000000000000000000000000000000000000000000000000000000000000000000000000000080E7E4
:3D645100000000000000000000000000000000000000000000000000000000000000000000000000000000000000000000000000000000000000000000000080E7A7
:3D648E00000000000000000000000000000000000000000000000000000000000000000000000000000000000000000000000000000000000000000000000080E76A
:3D64CB00020000000000000000000000000000000000000000000000000000000000000000000000000000000000000000000000000000000000000000000008ED9D
:3D650800000000000000000000000000000000000000000000000000000000000000000000000000000000000000000000000000000000000000000000000008EF5F
:3D654500000000000000000000000000000000000000000000000000000000000000000000000000000000000000000000000000000000000000000000000090F693
:3D658200000000000000000000000000000000000000000000000000000000000000000000000000000000000000000000000000000000000000000000000008EFE5
:3D65BF00000000000000000000000000000000000000000000000000000000000000000000000000000000000000000000000000000000000000000000000008EFA8
:3D65FC00020000000000000000000000000000000000000000000000000000000000000000000000000000000000000000000000000000000000000000000008ED6B
:3D663900000000000000000000000000000000000000000000000000000000000000000000000000000000000000000000000000000000000000000000000080E7BD
:3D667600020000000000000000000000000000000000000000000000000000000000000000000000000000000000000000000000000000000000000000000008EDF0
:3D66B300000000000000000000000000000000000000000000000000000000000000000000000000000000000000000000000000000000000000000000000008EFB3
:3D66F000000000000000000000000000000000000000000000000000000000000000000000000000000000000000000000000000000000000000000000000090F6E7
:3D672D00000000000000000000000000000000000000000000000000000000000000000000000000000000000000000000000000000000000000000000000008EF38
:3D676A00000000000000000000000000000000000000000000000000000000000000000000000000000000000000000000000000000000000000000000000008EFFB
:3D67A700020000000000000000000000000000000000000000000000000000000000000000000000000000000000000000000000000000000000000000000008EDBE
:3D67E400000000000000000000000000000000000000000000000000000000000000000000000000000000000000000000000000000000000000000000000080E711
:3D682100000000000000000000000000000000000000000000000000000000000000000000000000000000000000000000000000000000000000000000000080E7D3
:3D685E00000000000000000000000000000000000000000000000000000000000000000000000000000000000000000000000000000000000000000000000080E796
:3D689B00020000000000000000000000000000000000000000000000000000000000000000000000000000000000000000000000000000000000000000000008EDC9
:3D68D800000000000000000000000000000000000000000000000000000000000000000000000000000000000000000000000000000000000000000000000008EF8C
:3D691500000000000000000000000000000000000000000000000000000000000000000000000000000000000000000000000000000000000000000000000090F6BF
:3D695200000000000000000000000000000000000000000000000000000000000000000000000000000000000000000000000000000000000000000000000008EF11
:3D698F00000000000000000000000000000000000000000000000000000000000000000000000000000000000000000000000000000000000000000000000008EFD4
:3D69CC00020000000000000000000000000000000000000000000000000000000000000000000000000000000000000000000000000000000000000000000008ED97
:3D6A0900000000000000000000000000000000000000000000000000000000000000000000000000000000000000000000000000000000000000000000000080E7E9
:3D6A4600020000000000000000000000000000000000000000000000000000000000000000000000000000000000000000000000000000000000000000000008ED1C
:3D6A8300000000000000000000000000000000000000000000000000000000000000000000000000000000000000000000000000000000000000000000000008EFDF
:3D6AC000000000000000000000000000000000000000000000000000000000000000000000000000000000000000000000000000000000000000000000000090F613
:3D6AFD00000000000000000000000000000000000000000000000000000000000000000000000000000000000000000000000000000000000000000000000008EF65
:3D6B3A00000000000000000000000000000000000000000000000000000000000000000000000000000000000000000000000000000000000000000000000008EF27
:3D6B7700020000000000000000000000000000000000000000000000000000000000000000000000000000000000000000000000000000000000000000000008EDEA
:3D6BB400000000000000000000000000000000000000000000000000000000000000000000000000000000000000000000000000000000000000000000000080E73D
:3D6BF100000000000000000000000000000000000000000000000000000000000000000000000000000000000000000000000000000000000000000000000080E700
:3D6C2E00000000000000000000000000000000000000000000000000000000000000000000000000000000000000000000000000000000000000000000000080E7C2
:3D6C6B00020000000000000000000000000000000000000000000000000000000000000000000000000000000000000000000000000000000000000000000008EDF5
:3D6CA800020000000000000000000000000000000000000000000000000000000000000000000000000000000000000000000000000000000000000000000008EDB8
:3D6CE500040000000000000000000000000000000000000000000000000000000000000000000000000000000000000000000000000000000000000000000090F2EC
:3D6D2200020000000000000000000000000000000000000000000000000000000000000000000000000000000000000000000000000000000000000000000008ED3D
:3D6D5F00020000000000000000000000000000000000000000000000000000000000000000000000000000000000000000000000000000000000000000000008ED00
:3D6D9C00020000000000000000000000000000000000000000000000000000000000000000000000000000000000000000000000000000000000000000000008EDC3
:3D6DD900000000000000000000000000000000000000000000000000000000000000000000000000000000000000000000000000000000000000000000000080E716
:3D6E1600020000000000000000000000000000000000000000000000000000000000000000000000000000000000000000000000000000000000000000000008ED48
:3D6E5300020000000000000000000000000000000000000000000000000000000000000000000000000000000000000000000000000000000000000000000008ED0B
:3D6E9000040000000000000000000000000000000000000000000000000000000000000000000000000000000000000000000000000000000000000000000090F23F
:3D6ECD00020000000000000000000000000000000000000000000000000000000000000000000000000000000000000000000000000000000000000000000008ED91
:3D6F0A00020000000000000000000000000000000000000000000000000000000000000000000000000000000000000000000000000000000000000000000008ED53
:3D6F4700020000000000000000000000000000000000000000000000000000000000000000000000000000000000000000000000000000000000000000000008ED16
:3D6F8400000000000000000000000000000000000000000000000000000000000000000000000000000000000000000000000000000000000000000000000080E769
:3D6FC100000000000000000000000000000000000000000000000000000000000000000000000000000000000000000000000000000000000000000000000080E72C
:3D6FFE00000000000000000000000000000000000000000000000000000000000000000000000000000000000000000000000000000000000000000000000080E7EF
:3D703B00020000000000000000000000000000000000000000000000000000000000000000000000000000000000000000000000000000000000000000000008ED21
:3D707800020000000000000000000000000000000000000000000000000000000000000000000000000000000000000000000000000000000000000000000008EDE4
:3D70B500040000000000000000000000000000000000000000000000000000000000000000000000000000000000000000000000000000000000000000000090F218
:3D70F200020000000000000000000000000000000000000000000000000000000000000000000000000000000000000000000000000000000000000000000008ED6A
:3D712F00020000000000000000000000000000000000000000000000000000000000000000000000000000000000000000000000000000000000000000000008ED2C
:3D716C00020000000000000000000000000000000000000000000000000000000000000000000000000000000000000000000000000000000000000000000008EDEF
