:020000040000FA
:2B000000FFFF62FF2500FFFFFFFFFFFFFFFFFFFFFFFFFFFFFFFFFFFFFFFFFFFFFFFFFFFFFFFFFFFFFFFFFFFFFFFFFF76
:2B002B006018866118866118866118866118866118860100000000F016D71DDCC11D3C6F7087C11BBC6118DC6180CDBF
:2B0056004010044110044110044110044110044110040100000000288EA2100AA1108A422804A1100A41100A4180E3AC
:2B008100000000000000000000000000000000000000000000000000000000000000000000000000000000000080E7ED
:2B00AC00000000000000000000000000000000000000000000000000000000000000000000000000000000000080E7C2
:2B00D700000000000000000000000000000000000000000000000000080000000000000000000000000000000080EF87
:2B010200000000000000000000000000000000000000000000000040000000000000000000000000000000000080A36F
:2B012D00000000000000000000000000000000000000000000000000000000000000000000000000000000000008EFB0
:2B015800000000000000000000000000000000000000000000000000000000000000000000000000000000000080E715
:2B018300000000000000000000000000000000000000000000000000000000000000000000000000000000000080E7EA
:2B01AE00000000000000000000000000000000000000000000000000000000000000000000000000000000000080E7BF
:2B01D9000000000000000000000000000000000000000000000000000000000000000000000000000000000000A0C596
:2B020400000000000000000000000000000000000000000000000000000000000000000000000000000000000080E768
:2B022F00000000000000000000000000000000000000000000000000000000000000000000000000000000000080E73D
:2B025A00000000000000000000000000000000000000000000000000000000000000000000000000000000000080E712
:2B028500000000000000000000000000000000000000000000000000000000000000000000000000000000000080E7E7
:2B02B0000000000000000000000000000000000000000000000000000000000000000000000000000000000000A0C5BE
:2B02DB00000000000000000000000000000000000000000000000000000000000000000000000000000000000080E791
:2B030600000000000000000000000000000000000000000000000000000000000000000000000000000000000080E765
:2B033100000000000000000000000000000000000000000000000000000000000000000000000000000000000080E73A
:2B035C00000000000000000000000000000000000000000000000000000000000000000000000000000000000080E70F
:2B038700000000000000000000000000000000000000000000000000000000000000000000800000000000002000EDBE
:2B03B200020000000000000000000000000000000000000000000000000000000000000000000000000000000008ED29
:2B03DD00000000000000000000000000000000000000000000000000000000000000000000000000000000000080E78E
:2B040800000000000000000000000000000000000000000000000000000000000000000000800000000000002000ED3C
:2B043300000000000000000000000000000000000000000000000000000000000000000000000000000000000080E737
:2B045E00000000000000000000000000000000000000000000000000000000000000000000000000000000000080E70C
:2B048900020000000000000000000000000000000000000000000000000000000000000000000000000000000008ED51
:2B04B400800008800008800008800008800008800008000000000020000220000220000220000220000220000280E7BA
:2B04DF00800008800008800008800008800008800008000000000020000220000220000220000220000220000280E78F
:2B050A00000000000000000000000000000000000000000000000000000000000000000000000000000000000080E75F
:2B053500020000000000000000000000000000000000000000000000000000000000000000000000000000000008EDA4
:2B056000000000000000000000000000000000000000000000000000000000000000000000000000000000000008EF79
:2B058B00000000000000000000000000000000000000000000000000000000000000000000000000000000000090F6BF
:2B05B600000000000000000000000000000000000000000000000000000000000000000000000000000000000008EF23
:2B05E100000000000000000000000000000000000000000000000000000000000000000000000000000000000008EFF8
:2B060C00020000000000000000000000000000000000000000000000000000000000000000000000000000000008EDCC
:2B063700000000000000000000000000000000000000000000000000000000000000000000000000000000000080E731
:2B066200000000000000000000000000000000000000000000000000000000000000000000000000000000000080E706
:2B068D00000000000000000000000000000000000000000000000000000000000000000000000000000000000080E7DB
:2B06B800020000000000000000000000000000000000000000000000000000000000000000000000000000000008ED20
:2B06E300000000000000000000000000000000000000000000000000000000000000000000000000000000000080E785
:2B070E00000000000000000000000000000000000000000000000000000000000000000000000000000000000080E759
:2B073900000000000000000000000000000000000000000000000000000000000000000000000000000000000080E72E
:2B076400000000000000000000000000000000000000000000000000000000000000000000000000000000000080E703
:2B078F00020000000000000000000000000000000000000000000000000000000000000000000000000000000008ED48
:2B07BA00000000000000000000000000000000000000000000000000000000000000000000000000000000000080E7AD
:2B07E500000000000000000000000000000000000000000000000000000000000000000000000000000000000080E782
:2B081000000000000000000000000000000000000000000000000000000000000000000000000000000000000080E756
:2B083B00020000000000000000000000000000000000000000000000000000000000000000000000000000000008ED9B
:2B086600000000000000000000000000000000000000000000000000000000000000000000000000000000000008EF70
:2B089100000000000000000000000000000000000000000000000000000000000000000000000000000000000090F6B6
:2B08BC00000000000000000000000000000000000000000000000000000000000000000000000000000000000008EF1A
:2B08E700000000000000000000000000000000000000000000000000000000000000000000000000000000000008EFEF
:2B091200020000000000000000000000000000000000000000000000000000000000000000000000000000000008EDC3
:2B093D00000000000000000000000000000000000000000000000000000000000000000000000000000000000080E728
:2B096800000000000000000000000000000000000000000000000000000000000000000000000000000000000080E7FD
:2B099300000000000000000000000000000000000000000000000000000000000000000000000000000000000080E7D2
:2B09BE00020000000000000000000000000000000000000000000000000000000000000000000000000000000008ED17
:2B09E900000000000000000000000000000000000000000000000000000000000000000000000000000000000008EFEC
:2B0A1400000000000000000000000000000000000000000000000000000000000000000000000000000000000090F631
:2B0A3F00000000000000000000000000000000000000000000000000000000000000000000000000000000000008EF95
:2B0A6A00000000000000000000000000000000000000000000000000000000000000000000000000000000000008EF6A
:2B0A9500020000000000000000000000000000000000000000000000000000000000000000000000000000000008ED3F
:2B0AC000000000000000000000000000000000000000000000000000000000000000000000000000000000000080E7A4
:2B0AEB00000000000000000000000000000000000000000000000000000000000000000000000000000000000080E779
:2B0B1600000000000000000000000000000000000000000000000000000000000000000000000000000000000080E74D
:2B0B4100020000000000000000000000000000000000000000000000000000000000000000000000000000000008ED92
:2B0B6C00020000000000000000000000000000000000000000000000000000000000000000000000000000000008ED67
:2B0B9700040000000000000000000000000000000000000000000000000000000000000000000000000000000090F2AD
:2B0BC200020000000000000000000000000000000000000000000000000000000000000000000000000000000008ED11
:2B0BED00020000000000000000000000000000000000000000000000000000000000000000000000000000000008EDE6
:2B0C1800020000000000000000000000000000000000000000000000000000000000000000000000000000000008EDBA
:2B0C4300000000000000000000000000000000000000000000000000000000000000000000000000000000000080E71F
:2B0C6E00000000000000000000000000000000000000000000000000000000000000000000000000000000000080E7F4
:2B0C9900000000000000000000000000000000000000000000000000000000000000000000000000000000000080E7C9
:2B0CC400020000000000000000000000000000000000000000000000000000000000000000000000000000000008ED0E
:2B0CEF00020000000000000000000000000000000000000000000000000000000000000000000000000000000008EDE3
:2B0D1A00040000000000000000000000000000000000000000000000000000000000000000000000000000000090F228
:2B0D4500020000000000000000000000000000000000000000000000000000000000000000000000000000000008ED8C
:2B0D7000020000000000000000000000000000000000000000000000000000000000000000000000000000000008ED61
:2B0D9B00020000000000000000000000000000000000000000000000000000000000000000000000000000000008ED36
:2B0DC600000000000000000000000000000000000000000000000000000000000000000000000000000000000080E79B
:2B0DF100000000000000000000000000000000000000000000000000000000000000000000000000000000000080E770
:2B0E1C00000000000000000000000000000000000000000000000000000000000000000000000000000000000080E744
:2B0E4700020000000000000000000000000000000000000000000000000000000000000000000000000000000008ED89
:2B0E7200020000000000000000000000000000000000000000000000000000000000000000000000000000000008ED5E
:2B0E9D00040000000000000000000000000000000000000000000000000000000000000000000000000000000090F2A4
:2B0EC800020000000000000000000000000000000000000000000000000000000000000000000000000000000008ED08
:2B0EF300020000000000000000000000000000000000000000000000000000000000000000000000000000000008EDDD
:2B0F1E00020000000000000000000000000000000000000000000000000000000000000000000000000000000008EDB1
:2B0F4900000000000000000000000000000000000000000000000000000000000000000000000000000000000080E716
:2B0F7400000000000000000000000000000000000000000000000000000000000000000000000000000000000080E7EB
:2B0F9F00000000000000000000000000000000000000000000000000000000000000000000000000000000000080E7C0
:2B0FCA00000000000000000000000000000000000000000000000000000000000000000000000000000000000080E795
:2B0FF500000000000000000000000000000000000000000000000000000000000000000000000000000000000080E76A
:2B102000800008800008800008800008800008800008000000000020000220000220000220000220000220000280E742
:2B104B00800008800008800008800008800008800008000000000020000220000220000220000220000220000280E717
:2B107600000000000000000000000000000000000000000000000000000000000000000000000000000000000080E7E8
:2B10A100000000000000000000000000000000000000000000000000000000000000000802010010042008000080D984
:2B10CC00000000000000000000000000000000000000000000000000000000000000000000000000000000000080E792
:2B10F700000000000000000000000000000000000000000000000000000000000000000000000000000000000080E767
:2B112200000000000000000000000000000000000000000000000000000000000000000802010010042008000080D902
:2B114D00000000000000000000000000000000000000000000000000000000000000000000000000000000000080E710
:2B117800000000000000000000000000000000000000000000000000000000000000000000000000000000000080E7E5
:2B11A300000000000000000000000000000000000000000000000000000000000000000000000000000000000080E7BA
:2B11CE00000000000000000000000000000000000000000000000000000000000000000000000000000000000080E78F
:2B11F9000000000000000000000000000000000000000000000000000000000000000000000000000000000000D0B249
:2B122400000000000000000000000000000000000000000000000000000000000000000000000000000000000008EFA8
:2B124F00080000000000000000000000000000000000000000000000000000000000000000000000000000000080EFFD
:2B127A00000000000000000000000000000000000000000000000000000000000000000000000000000000000080E7E2
:2B12A500000000000000000000000000000000000000000000000000000000000000000000000000000000000080E7B7
:2B12D0000200000000000000000000000000000000000000000000000000000000000000000000000000000000D0B071
:2B12FB00000000000000000000000000000000000000000000000000000000000000000000000000000000000080E761
:2B1326000000000000000000000000000000000000000000000000000000000000000000000000000000000000A0C537
:2B135100040000000000000000000000000000000000000000000000000000000000000000000000000000000080E30A
:2B137C00000000000000000000000000000000000000000000000000000000000000000000000000000000000080E7DF
:2B13A700000000000000000000000000000000000000000000000000000000000000000000000000000000000090F695
:2B13D200000000000000000000000000000000000000000000000000000000000000000000000000000000000048ABFD
:2B13FD00000000000000000000000000000000000000000000000000000000000000000000000000000000000080E75E
:2B142800000000000000000000000000000000000000000000000000000000000000000000000000000000000080E732
:2B1453000000000000000000000000000000000000000000000000000000000000000000000000000000000000A0C509
:2B147E00000000000000000000000000000000000000000000000000000000000000000000000000000000000080E7DC
:2B14A900000000000000000000000000000000000000000000000000000000000000000000000000000000000080E7B1
:2B14D400000000000000000000000000000000000000000000000000000000000000000000000000000000000080E786
:2B14FF00000000000000000000000000000000000000000000000000000000000000000000000000000000000080E75B
:2B152A0000000000000000000000000000000000000000000000000000000000000000000000000000000000006889A5
:2B155500000000000000000000000000000000000000000000000000000000000000000000000000000000000080E704
:2B158000000000000000000000000000000000000000000000000000000000000000000000000000000000000080E7D9
:2B15AB00000000000000000000000000000000000000000000000000000000000000000000000000000000000080E7AE
:2B15D600000000000000000000000000000000000000000000000000000000000000000000000000000000000080E783
:2B160100000000000000000000000000000000000000000000000000000000000800002000000000800000000082CDC7
:2B162C00020000000000000000000000000000000000000000000000000000000000000000000000000000000008ED9C
:2B165700000000000000000000000000000000000000000000000000000000000000000000000000000000000008EF71
:2B168200000000000000000000000000000000000000000000000000000000000800002000000000800000000092DC27
:2B16AD00000000000000000000000000000000000000000000000000000000000000000000000000000000000008EF1B
:2B16D800000000000000000000000000000000000000000000000000000000000000000000000000000000000008EFF0
:2B170300020000000000000000000000000000000000000000000000000000000000000000000000000000000008EDC4
:2B172E00800008800008800008800008800008800008000000000020000220000220000220000220000220000280E72D
:2B175900800008800008800008800008800008800008000000000020000220000220000220000220000220000280E702
:2B178400000000000000000000000000000000000000000000000000000000000000000000000000000000000080E7D3
:2B17AF00020000000000000000000000000000000000000000000000000000000000000000000000000000000008ED18
:2B17DA00000000000000000000000000000000000000000000000000000000000000000000000000000000000008EFED
:2B180500000000000000000000000000000000000000000000000000000000000000000000000000000000000090F632
:2B183000000000000000000000000000000000000000000000000000000000000000000000000000000000000008EF96
:2B185B00000000000000000000000000000000000000000000000000000000000000000000000000000000000008EF6B
:2B188600020000000000000000000000000000000000000000000000000000000000000000000000000000000008ED40
:2B18B100000000000000000000000000000000000000000000000000000000000000000000000000000000000080E7A5
:2B18DC00000000000000000000000000000000000000000000000000000000000000000000000000000000000080E77A
:2B190700000000000000000000000000000000000000000000000000000000000000000000000000000000000080E74E
:2B193200020000000000000000000000000000000000000000000000000000000000000000000000000000000008ED93
:2B195D00000000000000000000000000000000000000000000000000000000000000000000000000000000000008EF68
:2B198800000000000000000000000000000000000000000000000000000000000000000000000000000000000090F6AE
:2B19B300000000000000000000000000000000000000000000000000000000000000000000000000000000000008EF12
:2B19DE00000000000000000000000000000000000000000000000000000000000000000000000000000000000008EFE7
:2B1A0900020000000000000000000000000000000000000000000000000000000000000000000000000000000008EDBB
:2B1A3400000000000000000000000000000000000000000000000000000000000000000000000000000000000080E720
:2B1A5F00000000000000000000000000000000000000000000000000000000000000000000000000000000000080E7F5
:2B1A8A00000000000000000000000000000000000000000000000000000000000000000000000000000000000080E7CA
:2B1AB500020000000000000000000000000000000000000000000000000000000000000000000000000000000008ED0F
:2B1AE000000000000000000000000000000000000000000000000000000000000000000000000000000000000008EFE4
:2B1B0B00000000000000000000000000000000000000000000000000000000000000000000000000000000000090F629
:2B1B3600000000000000000000000000000000000000000000000000000000000000000000000000000000000008EF8D
:2B1B6100000000000000000000000000000000000000000000000000000000000000000000000000000000000008EF62
:2B1B8C00020000000000000000000000000000000000000000000000000000000000000000000000000000000008ED37
:2B1BB700000000000000000000000000000000000000000000000000000000000000000000000000000000000080E79C
:2B1BE200000000000000000000000000000000000000000000000000000000000000000000000000000000000080E771
:2B1C0D00000000000000000000000000000000000000000000000000000000000000000000000000000000000080E745
:2B1C3800020000000000000000000000000000000000000000000000000000000000000000000000000000000008ED8A
:2B1C6300020000000000000000000000000000000000000000000000000000000000000000000000000000000008ED5F
:2B1C8E00040000000000000000000000000000000000000000000000000000000000000000000000000000000090F2A5
:2B1CB900020000000000000000000000000000000000000000000000000000000000000000000000000000000008ED09
:2B1CE400020000000000000000000000000000000000000000000000000000000000000000000000000000000008EDDE
:2B1D0F00020000000000000000000000000000000000000000000000000000000000000000000000000000000008EDB2
:2B1D3A00000000000000000000000000000000000000000000000000000000000000000000000000000000000080E717
:2B1D6500000000000000000000000000000000000000000000000000000000000000000000000000000000000080E7EC
:2B1D9000000000000000000000000000000000000000000000000000000000000000000000000000000000000080E7C1
:2B1DBB00020000000000000000000000000000000000000000000000000000000000000000000000000000000008ED06
:2B1DE600020000000000000000000000000000000000000000000000000000000000000000000000000000000080E56B
:2B1E1100040000000000000000000000000000000000000000000000000000000000000000000000000000000080E33F
:2B1E3C00020000000000000000000000000000000000000000000000000000000000000000000000000000000080E514
:2B1E6700020000000000000000000000000000000000000000000000000000000000000000000000000000000080E5E9
:2B1E9200020000000000000000000000000000000000000000000000000000000000000000000000000000000008ED2E
:2B1EBD00000000000000000000000000000000000000000000000000000000000000000000000000000000000080E793
:2B1EE800000000000000000000000000000000000000000000000000000000000000000000000000000000000080E768
:2B1F1300000000000000000000000000000000000000000000000000000000000000000000000000000000000080E73C
:2B1F3E00020000000000000000000000000000000000000000000000000000000000000000000000000000000008ED81
:2B1F6900020000000000000000000000000000000000000000000000000000000000000000000000000000000008ED56
:2B1F9400040000000000000000000000000000000000000000000000000000000000000000000000000000000090F29C
:2B1FBF00020000000000000000000000000000000000000000000000000000000000000000000000000000000008ED00
:2B1FEA00020000000000000000000000000000000000000000000000000000000000000000000000000000000008EDD5
:2B201500020000000000000000000000000000000000000000000000000000000000000000000000000000000008EDA9
:2B204000000000000000000000000000000000000000000000000000000000000000000000000000000000000080E70E
:2B206B00000000000000000000000000000000000000000000000000000000000000000000000000000000000080E7E3
:2B209600000000000000000000000000000000000000000000000000000000000000000000000000000000000080E7B8
:2B20C100020000000000000000000000000000000000000000000000000000000000000000000000000000000008EDFD
:2B20EC00020000000000000000000000000000000000000000000000000000000000000000000000000000000008EDD2
:2B211700040000000000000000000000000000000000000000000000000000000000000000000000000000000090F217
:2B214200020000000000000000000000000000000000000000000000000000000000000000000000000000000008ED7B
:2B216D00020000000000000000000000000000000000000000000000000000000000000000000000000000000008ED50
:2B219800020000000000000000000000000000000000000000000000000000000000000000000000000000000008ED25
:2B21C300000000000000000000000000000000000000000000000000000000000000000000000000000000000080E78A
:2B21EE00000000000000000000000000000000000000000000000000000000000000000000000000000000000080E75F
:2B221900000000000000000000000000000000000000000000000000000000000000000000000000000000000080E733
:2B224400000000000000000000000000000000000000000000000000000000000000000000000000000000000080E708
:2B226F00000000000000000000000000000000000000000000000000000000000000000000000000000000000080E7DD
:2B229A00800008800008800008800008800008800008000000000020000220000220000220000220000220000280E7B6
:2B22C500800008800008800008800008800008800008000000000020000220000220000220000220000220000280E78B
:2B22F000000000000000000000000000000000000000000000000000000000000000000000000000000000000080E75C
:2B231B000000000000000000000000000000000000000000000000000000000000040000008010000000820401809B61
:2B234600000000000000000000000000000000000000000000000000000000000000000000000000000000000080E705
:2B237100000000000000000000000000000000000000000000000000000000000000000000000000000000000080E7DA
:2B239C000000000000000000000000000000000000000000000000000000000000040000008010000000820401809BE0
:2B23C700000000000000000000000000000000000000000000000000000000000000000000000000000000000080E784
:2B23F200000000000000000000000000000000000000000000000000000000000000000000000000000000000080E759
:2B241D00000000000000000000000000000000000000000000000000000000000000000000000000000000000080E72D
:2B244800000000000000000000000000000000000000000000000000000000000000000000000000000000000080E702
:2B2473000A0000000000000000000000000000000000000000000000000000000000000000000000000000000048A14B
:2B249E00000000000000000000000000000000000000000000000000000000000000000000000000000000000080E7AC
:2B24C900000000000000000000000000000000000000000000000000000000000000000000000000000000000080E781
:2B24F400100000000000000000000000000000000000000000000000000000000000000000000000000000000080F736
:2B251F00000000000000000000000000000000000000000000000000000000000000000000000000000000000090F60B
:2B254A00040000000000000000000000000000000000000000000000000000000000000000000000000000000080E3FF
:2B257500000000000000000000000000000000000000000000000000000000000000000000000000000000000080E7D4
:2B25A000020000000000000000000000000000000000000000000000000000000000000000000000000000000080E5A9
:2B25CB00000000000000000000000000000000000000000000000000000000000000000000000000000000000048ABF2
:2B25F600080000000000000000000000000000000000000000000000000000000000000000000000000000000080EF43
:2B262100000000000000000000000000000000000000000000000000000000000000000000000000000000000080E727
:2B264C00000000000000000000000000000000000000000000000000000000000000000000000000000000000080E7FC
:2B267700000000000000000000000000000000000000000000000000000000000000000000000000000000002080E5B3
:2B26A200000000000000000000000000000000000000000000000000001000000000000000000000200000000080C697
:2B26CD00000000000000000000000000000000000000000000000000000000000000000000200000000000100080D75B
:2B26F800000000000000000000000000000000000000000000000000000000000000000000000000000000000080E750
:2B272300000000000000000000000000000000000000000000000000000000000000000000000000000000000080E724
:2B274E00000000000000000000000000000000000000000000000000000000000000000000000000000000000080E7F9
:2B277900000000000000000000000000000000000000000000000000000000000000000000000010020000000480B0EF
:2B27A4000000000000000000000000000000000000000000000000000000000000004000000042000000100000809068
:2B27CF000C0000000000000000000000000000000000000000000000000000000000000000000000000000000080EB68
:2B27FA00000000000000000000000000000000000000000000000000000000000000000000000000000000000080E74D
:2B282500000000000000000000000000000000000000000000000080000000000080000000000000000000000080E721
:2B28500000000000000000000000000000000000000000000000004000000000004000000000000400002000008085B4
:2B287B000000000000000000000000000000000000000000000000808020000224002008080000022000000200819384
:2B28A600000000000000000000000000000000000000000000000080800000000000008808000200000200008080E78C
:2B28D100020000000000000000000000000000000000000000000000000000000000000000000000000000000008EDE5
:2B28FC000200000000000000000000000000000000000000000000000020000224002000000000022000000200099983
:2B292700020000000000000000000000000000000000000000000000000000000000008000000000000000000008E516
:2B295200020000000000000000000000000000000000000000000000000000000000000000000000000000000008ED63
:2B297D00000000000000000000000000000000000000000000000000000000000000000000000000000000000080E7C8
:2B29A800800008800008800008800008800008800008000000000020000220000220000220000220000220000280E7A1
:2B29D300800008800008800008800008800008800008000000000020000220000220000220000220000220000280E776
:2B29FE00000000000000000000000000000000000000000000000000000000000000000000000000000000000082C765
:2B2A2900000000000000000000000000000000000000000000000000000000000000000000000000000000800980FE7B
:2B2A5400020000000000000000000000000000000000000000000000000000000000000000000000000000000409B98F
:2B2A7F00020000000000000000000000000000000000000000000000000000000000000000000000000000000D88B8DD
:2B2AAA00020000000000000000000000000000000000000000000000000000000000000000000000000000000008ED0A
:2B2AD50002000000000000000000000000000000000000000000000000000000000000000000000000000000060CCBF7
:2B2B0000000000000000000000000000000000000000000000000000000000000000000000000000000000004480A73F
:2B2B2B000000000000000000000000000000000000000000000000000000000000000000000000000000000006808178
:2B2B5600000000000000000000000000000000000000000000000000000000000000000000000000000000000082C70B
:2B2B8100000000000000000000000000000000000000000000000000000000000000000000000000000000800980FE22
:2B2BAC00000000000000000000000000000000000000000000000000000000000000000000000000000000000481B3C6
:2B2BD700020000000000000000000000000000000000000000000000000000000000000000000000000000000D88B884
:2B2C0200020000000000000000000000000000000000000000000000000000000000000000000000000000000008EDB0
:2B2C2D000200000000000000000000000000000000000000000000000000000000000000000000000000000046088F9D
:2B2C5800020000000000000000000000000000000000000000000000000000000000000000000000000000000C88A912
:2B2C8300000000000000000000000000000000000000000000000000000000000000000000000000000000000680811F
:2B2CAE00000000000000000000000000000000000000000000000000000000000002200000000000000000000080E772
:2B2CD900000000000000000000000000000000000000000000000000000000800998000000000000000000000080E748
:2B2D0400000000000000000000000000000000000000000000000000000000000441000000000000000000000080F7E8
:2B2D2F00000000000000000000000000000000000000000000000000000000000DD0010000000000000000000080E635
:2B2D5A00020000000000000000000000000000000000000000000000000000000000400000000000000000000008AD57
:2B2D8500020000000000000000000000000000000000000000000000000000004E60000000000000000000000088E902
:2B2DB000020000000000000000000000000000000000000000000000000000000440000000000000000000000008EDBD
:2B2DDB000200000000000000000000000000000000000000000000000000000006E4400000000000000000000088ED2C
:2B2E0600000000000000000000000000000000000000000000000000000000000000000000000002000002000080E736
:2B2E3100000000000000000000000000000000000000000000000000000000000000000000800900800900000080E7FD
:2B2E5C00000000000000000000000000000000000000000000000000000000000000000000000401000401000080E7DA
:2B2E8700000000000000000000000000000000000000000000000000000000000000000000000D00000D00000080E79F
:2B2EB200000000000000000000000000000000000000000000000000000000000000000000008000000800000000EF7E
:2B2EDD00020000000000000000000000000000000000000000000000000000000000000000000600000E00000088ED3F
:2B2F0800020000000000000000000000000000000000000000000000000000000000000000000404000400000008ADDB
:2B2F3300020000000000000000000000000000000000000000000000000000000000000000000600004E00000088E9AC
:2B2F5E00020000000000000000000000000000000000000000000000000000000000000002000000000002000008ED4D
:2B2F8900000000000000000000000000000000000000000000000000000000000000800900000000800900000080E7A4
:2B2FB400000000000000000000000000000000000000000000000000000000000000000401000000000401000080E781
:2B2FDF00000000000000000000000000000000000000000000000000000000000000000D00000000000D00000080E746
:2B300A00000000000000000000000000000000000000000000000000000000000000000000000000000004000080A770
:2B303500000000000000000000000000000000000000000000000000000000000000000601000000000E00000000F764
:2B306000020000000000000000000000000000000000000000000000000000000000000400000000000400000008ED46
:2B308B00020000000000000000000000000000000000000000000000000000000000000E01000000004600000088F942
:2B30B600020000000000000000000000000000000000000000000000000000200000000000000000200002200008ED96
:2B30E100020000000000000000000000000000000000000000000000000098000000000000000098800998000008ED7C
:2B310C00000000000000000000000000000000000000000000000000000040100000000000000040100441100080E73C
:2B3137000000000000000000000000000000000000000000000000000000D00000000000000000D0000DD0000080E789
:2B316200000000000000000000000000000000000000000000000000000000100000000000000000000080000000F7BB
:2B318D000000000000000000000000000000000000000000000000000000600000000000000000E0100EE4000000B71E
:2B31B8000000000000000000000000000000000000000000000000000000400000000000000000C0008440400000AF39
:2B31E300020000000000000000000000000000000000000000000000000060400000000000000060000EE0000008AD1C
:2B320E00020000000000000000000000000000000000000000000000000000000000000002200000000000200008CD7C
:2B323900020000000000000000000000000000000000000000000000000000000000800998000000000098000008F4B3
:2B326400020000000000000000000000000000000000000000000000000000000000000441100000000040100008B9D7
:2B328F00000000000000000000000000000000000000000000000000000000000000000DD00000000000D0000000B2B5
:2B32BA00000000000000000000000000000000000000000000000000000000000000000002080000000000040080CB90
:2B32E5000000000000000000000000000000000000000000000000000000000000000006600000000000E000000081F7
:2B331000000000000000000000000000000000000000000000000000000000000000004440400000000040000080E727
:2B333B00000000000000000000000000000000000000000000000000000000000000000E600000000000E0200080A1D8
:2B33660002000000000000000000000000000000000000000000006000000200004000000020000220000020000ACF5D
:2B339100020000000000000000000000000000000000000000000018880900000018080098800998000098800908ED77
:2B33BC000200000000000000000000000000000000000000000000200404010000400400401004411000401004098BEA
:2B33E700020000000000000000000000000000000000000000000010000D000000300000D0000DD00000D0000D08CF0B
:2B3412000000000000000000000000000000000000000000000000A00080000000000000000000014000800000809D91
:2B343D00000000000000000000000000000000000000000000000000000E000000204000E00406E0000060000E8191AC
:2B346800000000000000000000000000000000000000000000000020000404000080000040004440200040000400A1C8
:2B349300120000000000000000000000000000000000000000000000400E000000200000E0400E600000E004067A8C10
:2B34BE001E000000000000000000000000000000000000000000000000000000000000000000000000000000007886C7
:2B34E900000000000000000000000000000000000000000000000000000000000000000000000000000000000080E751
:2B351400800008800008800008800008800008800008000000000020000220000220000220000220000220000280E729
:2B353F00800008800008800008800008800008800008000000000020000220000220000220000220000220000280E7FE
:2B356A00000000000000000000000000000000000000000000000020000C00000009000000000400000000000080DDA0
:2B359500000000000000000000000000000000000000000000000000000000000001000441000400000041000080F709
:2B35C000000000000000000000000000000000000000000000000080000000000000000000000008800000800080EFE9
:2B35EB000000000000000000000000000000000000000000000000000000000220002000020222200880220A2280CF08
:2B3616000000000000000000000000000000000000000000000000A0000800022009200443022408800043822080F547
:2B3641000000000000000000000000000000000000000000000000104000000000104000000000000004200000808199
:2B366C00000000000000000000000000000000000000000000000000002000022000002200422000022000222080A5E4
:2B369700000000000000000000000000000000000000000000000000000000400000200000000000000200008080ADF9
:2B36C200000000000000000000000000000000000000000000000000000002000000000000000000081000000080CE75
:2B36ED00000000000000000000000000000000000000000000000000000000000000004020000000000010000084902E
:2B371800000000000000000000000000000000000000000000000000000000000000008080000000000000000000EF97
:2B374300000000000000000000000000000000000000000000000000000000000000000000000000000000000080E7F4
:2B376E00000000000000000000000000000000000000000000000000000000000000000000000000000000000080E7C9
:2B379900000000000000000000000000000000000000000000000000000000000004000000000000000000000180B6CA
:2B37C400000000000000000000000000000000000000000000000000000000000000000000000000000000000080E773
:2B37EF00000000000000000000000000000000000000000000000000000000000200000000000000000002000080E546
:2B381A00000000000000000000000000000000000000000000000000000001140001100001100801100103100001C25C
:2B384500000000000000000000000000000000000000000000000000000000000000002000000000000000000080E5D3
:2B387000000000000000000000000000000000000000000000000000000000000000000000000000000000000480A306
:2B389B00000000000000000000000000000000000000000000000000000000000000000000000000000000000080E79B
:2B38C600000000000000000000000000000000000000000000000000000000000000000000000000000000000080E770
:2B38F100000000000000000000000000000000000000000000000000000000000000000000000000000000000080E745
:2B391C00000000000000000000000000000000000000000000000000000000000000000000000000000000000080E719
:2B3947004010044110044110044110044110044110040100000000280441100AA1100AA1100AA12884A2108AA280E9C6
:2B3972006018866118866118866118866118866118860100000000F0866118DCC11DBCC11BDCC17507D71B5CD705DCD0
:02399D00FFFF2A
:00000001FF
